{
  "_format": "hh-sol-artifact-1",
  "contractName": "CertificateVerification",
  "sourceName": "contracts/main.sol",
  "abi": [
    {
      "inputs": [],
      "stateMutability": "nonpayable",
      "type": "constructor"
    },
    {
      "anonymous": false,
      "inputs": [
        {
          "indexed": true,
          "internalType": "address",
          "name": "owner",
          "type": "address"
        },
        {
          "indexed": true,
          "internalType": "address",
          "name": "approved",
          "type": "address"
        },
        {
          "indexed": true,
          "internalType": "uint256",
          "name": "tokenId",
          "type": "uint256"
        }
      ],
      "name": "Approval",
      "type": "event"
    },
    {
      "anonymous": false,
      "inputs": [
        {
          "indexed": true,
          "internalType": "address",
          "name": "owner",
          "type": "address"
        },
        {
          "indexed": true,
          "internalType": "address",
          "name": "operator",
          "type": "address"
        },
        {
          "indexed": false,
          "internalType": "bool",
          "name": "approved",
          "type": "bool"
        }
      ],
      "name": "ApprovalForAll",
      "type": "event"
    },
    {
      "anonymous": false,
      "inputs": [
        {
          "indexed": true,
          "internalType": "uint256",
          "name": "certificateId",
          "type": "uint256"
        },
        {
          "indexed": true,
          "internalType": "address",
          "name": "issuer",
          "type": "address"
        }
      ],
      "name": "CertificateIssued",
      "type": "event"
    },
    {
      "anonymous": false,
      "inputs": [
        {
          "indexed": true,
          "internalType": "uint256",
          "name": "certificateId",
          "type": "uint256"
        },
        {
          "indexed": true,
          "internalType": "address",
          "name": "verifier",
          "type": "address"
        },
        {
          "indexed": false,
          "internalType": "bool",
          "name": "isValid",
          "type": "bool"
        }
      ],
      "name": "CertificateVerified",
      "type": "event"
    },
    {
      "anonymous": false,
      "inputs": [
        {
          "indexed": true,
          "internalType": "address",
          "name": "from",
          "type": "address"
        },
        {
          "indexed": true,
          "internalType": "address",
          "name": "to",
          "type": "address"
        },
        {
          "indexed": true,
          "internalType": "uint256",
          "name": "tokenId",
          "type": "uint256"
        }
      ],
      "name": "Transfer",
      "type": "event"
    },
    {
      "inputs": [
        {
          "internalType": "address",
          "name": "to",
          "type": "address"
        },
        {
          "internalType": "uint256",
          "name": "tokenId",
          "type": "uint256"
        }
      ],
      "name": "approve",
      "outputs": [],
      "stateMutability": "nonpayable",
      "type": "function"
    },
    {
      "inputs": [
        {
          "internalType": "address",
          "name": "owner",
          "type": "address"
        }
      ],
      "name": "balanceOf",
      "outputs": [
        {
          "internalType": "uint256",
          "name": "",
          "type": "uint256"
        }
      ],
      "stateMutability": "view",
      "type": "function"
    },
    {
      "inputs": [],
      "name": "certificateCounter",
      "outputs": [
        {
          "internalType": "uint256",
          "name": "",
          "type": "uint256"
        }
      ],
      "stateMutability": "view",
      "type": "function"
    },
    {
      "inputs": [
        {
          "internalType": "uint256",
          "name": "",
          "type": "uint256"
        }
      ],
      "name": "certificates",
      "outputs": [
        {
          "internalType": "address",
          "name": "issuer",
          "type": "address"
        },
        {
          "internalType": "string",
          "name": "certificateType",
          "type": "string"
        },
        {
          "internalType": "string",
          "name": "holdersName",
          "type": "string"
        },
        {
          "internalType": "uint256",
          "name": "dateOfIssuance",
          "type": "uint256"
        },
        {
          "internalType": "bool",
          "name": "isValid",
          "type": "bool"
        },
        {
          "internalType": "string",
          "name": "additionalData",
          "type": "string"
        },
        {
          "internalType": "string",
          "name": "documentUrl",
          "type": "string"
        },
        {
          "internalType": "address",
          "name": "holder",
          "type": "address"
        }
      ],
      "stateMutability": "view",
      "type": "function"
    },
    {
      "inputs": [
        {
          "internalType": "uint256",
          "name": "tokenId",
          "type": "uint256"
        }
      ],
      "name": "getApproved",
      "outputs": [
        {
          "internalType": "address",
          "name": "",
          "type": "address"
        }
      ],
      "stateMutability": "view",
      "type": "function"
    },
    {
      "inputs": [
        {
          "internalType": "address",
          "name": "owner",
          "type": "address"
        },
        {
          "internalType": "address",
          "name": "operator",
          "type": "address"
        }
      ],
      "name": "isApprovedForAll",
      "outputs": [
        {
          "internalType": "bool",
          "name": "",
          "type": "bool"
        }
      ],
      "stateMutability": "view",
      "type": "function"
    },
    {
      "inputs": [
        {
          "internalType": "string",
          "name": "certificateType",
          "type": "string"
        },
        {
          "internalType": "string",
          "name": "holdersName",
          "type": "string"
        },
        {
          "internalType": "string",
          "name": "additionalData",
          "type": "string"
        },
        {
          "internalType": "string",
          "name": "documentUrl",
          "type": "string"
        },
        {
          "internalType": "address",
          "name": "holder",
          "type": "address"
        }
      ],
      "name": "issueCertificate",
      "outputs": [],
      "stateMutability": "nonpayable",
      "type": "function"
    },
    {
      "inputs": [
        {
          "internalType": "uint256",
          "name": "certificateId",
          "type": "uint256"
        }
      ],
      "name": "mintCertificateAsNFT",
      "outputs": [],
      "stateMutability": "nonpayable",
      "type": "function"
    },
    {
      "inputs": [],
      "name": "name",
      "outputs": [
        {
          "internalType": "string",
          "name": "",
          "type": "string"
        }
      ],
      "stateMutability": "view",
      "type": "function"
    },
    {
      "inputs": [],
      "name": "owner",
      "outputs": [
        {
          "internalType": "address",
          "name": "",
          "type": "address"
        }
      ],
      "stateMutability": "view",
      "type": "function"
    },
    {
      "inputs": [
        {
          "internalType": "uint256",
          "name": "tokenId",
          "type": "uint256"
        }
      ],
      "name": "ownerOf",
      "outputs": [
        {
          "internalType": "address",
          "name": "",
          "type": "address"
        }
      ],
      "stateMutability": "view",
      "type": "function"
    },
    {
      "inputs": [
        {
          "internalType": "address",
          "name": "from",
          "type": "address"
        },
        {
          "internalType": "address",
          "name": "to",
          "type": "address"
        },
        {
          "internalType": "uint256",
          "name": "tokenId",
          "type": "uint256"
        }
      ],
      "name": "safeTransferFrom",
      "outputs": [],
      "stateMutability": "nonpayable",
      "type": "function"
    },
    {
      "inputs": [
        {
          "internalType": "address",
          "name": "from",
          "type": "address"
        },
        {
          "internalType": "address",
          "name": "to",
          "type": "address"
        },
        {
          "internalType": "uint256",
          "name": "tokenId",
          "type": "uint256"
        },
        {
          "internalType": "bytes",
          "name": "data",
          "type": "bytes"
        }
      ],
      "name": "safeTransferFrom",
      "outputs": [],
      "stateMutability": "nonpayable",
      "type": "function"
    },
    {
      "inputs": [
        {
          "internalType": "address",
          "name": "operator",
          "type": "address"
        },
        {
          "internalType": "bool",
          "name": "approved",
          "type": "bool"
        }
      ],
      "name": "setApprovalForAll",
      "outputs": [],
      "stateMutability": "nonpayable",
      "type": "function"
    },
    {
      "inputs": [
        {
          "internalType": "bytes4",
          "name": "interfaceId",
          "type": "bytes4"
        }
      ],
      "name": "supportsInterface",
      "outputs": [
        {
          "internalType": "bool",
          "name": "",
          "type": "bool"
        }
      ],
      "stateMutability": "view",
      "type": "function"
    },
    {
      "inputs": [],
      "name": "symbol",
      "outputs": [
        {
          "internalType": "string",
          "name": "",
          "type": "string"
        }
      ],
      "stateMutability": "view",
      "type": "function"
    },
    {
      "inputs": [
        {
          "internalType": "uint256",
          "name": "tokenId",
          "type": "uint256"
        }
      ],
      "name": "tokenURI",
      "outputs": [
        {
          "internalType": "string",
          "name": "",
          "type": "string"
        }
      ],
      "stateMutability": "view",
      "type": "function"
    },
    {
      "inputs": [
        {
          "internalType": "address",
          "name": "from",
          "type": "address"
        },
        {
          "internalType": "address",
          "name": "to",
          "type": "address"
        },
        {
          "internalType": "uint256",
          "name": "tokenId",
          "type": "uint256"
        }
      ],
      "name": "transferFrom",
      "outputs": [],
      "stateMutability": "nonpayable",
      "type": "function"
    },
    {
      "inputs": [
        {
          "internalType": "uint256",
          "name": "certificateId",
          "type": "uint256"
        }
      ],
      "name": "verifyCertificate",
      "outputs": [
        {
          "internalType": "bool",
          "name": "",
          "type": "bool"
        }
      ],
      "stateMutability": "view",
      "type": "function"
    }
  ],
  "bytecode": "0x60806040523480156200001157600080fd5b506040518060400160405280600b81526020017f43657274696669636174650000000000000000000000000000000000000000008152506040518060400160405280600481526020017f434552540000000000000000000000000000000000000000000000000000000081525081600090816200008f91906200036d565b508060019081620000a191906200036d565b50505033600660006101000a81548173ffffffffffffffffffffffffffffffffffffffff021916908373ffffffffffffffffffffffffffffffffffffffff160217905550600060088190555062000454565b600081519050919050565b7f4e487b7100000000000000000000000000000000000000000000000000000000600052604160045260246000fd5b7f4e487b7100000000000000000000000000000000000000000000000000000000600052602260045260246000fd5b600060028204905060018216806200017557607f821691505b6020821081036200018b576200018a6200012d565b5b50919050565b60008190508160005260206000209050919050565b60006020601f8301049050919050565b600082821b905092915050565b600060088302620001f57fffffffffffffffffffffffffffffffffffffffffffffffffffffffffffffffff82620001b6565b620002018683620001b6565b95508019841693508086168417925050509392505050565b6000819050919050565b6000819050919050565b60006200024e62000248620002428462000219565b62000223565b62000219565b9050919050565b6000819050919050565b6200026a836200022d565b62000282620002798262000255565b848454620001c3565b825550505050565b600090565b620002996200028a565b620002a68184846200025f565b505050565b5b81811015620002ce57620002c26000826200028f565b600181019050620002ac565b5050565b601f8211156200031d57620002e78162000191565b620002f284620001a6565b8101602085101562000302578190505b6200031a6200031185620001a6565b830182620002ab565b50505b505050565b600082821c905092915050565b6000620003426000198460080262000322565b1980831691505092915050565b60006200035d83836200032f565b9150826002028217905092915050565b6200037882620000f3565b67ffffffffffffffff811115620003945762000393620000fe565b5b620003a082546200015c565b620003ad828285620002d2565b600060209050601f831160018114620003e55760008415620003d0578287015190505b620003dc85826200034f565b8655506200044c565b601f198416620003f58662000191565b60005b828110156200041f57848901518255600182019150602085019450602081019050620003f8565b868310156200043f57848901516200043b601f8916826200032f565b8355505b6001600288020188555050505b505050505050565b61354180620004646000396000f3fe608060405234801561001057600080fd5b50600436106101215760003560e01c8063663b3e22116100ad57806395d89b411161007157806395d89b4114610333578063a22cb46514610351578063b88d4fde1461036d578063c87b56dd14610389578063e985e9c5146103b957610121565b8063663b3e221461027457806367764b26146102ab57806370a08231146102c95780637e1eeec8146102f95780638da5cb5b1461031557610121565b80631692a942116100f45780631692a942146101c0578063229efd24146101f057806323b872dd1461020c57806342842e0e146102285780636352211e1461024457610121565b806301ffc9a71461012657806306fdde0314610156578063081812fc14610174578063095ea7b3146101a4575b600080fd5b610140600480360381019061013b9190612094565b6103e9565b60405161014d91906120dc565b60405180910390f35b61015e6104cb565b60405161016b9190612187565b60405180910390f35b61018e600480360381019061018991906121df565b61055d565b60405161019b919061224d565b60405180910390f35b6101be60048036038101906101b99190612294565b6105a3565b005b6101da60048036038101906101d591906121df565b6106ba565b6040516101e791906120dc565b60405180910390f35b61020a60048036038101906102059190612409565b61077f565b005b610226600480360381019061022191906124f4565b610aae565b005b610242600480360381019061023d91906124f4565b610b0e565b005b61025e600480360381019061025991906121df565b610b2e565b60405161026b919061224d565b60405180910390f35b61028e600480360381019061028991906121df565b610bb4565b6040516102a2989796959493929190612556565b60405180910390f35b6102b3610e69565b6040516102c091906125f0565b60405180910390f35b6102e360048036038101906102de919061260b565b610e6f565b6040516102f091906125f0565b60405180910390f35b610313600480360381019061030e91906121df565b610f26565b005b61031d61102e565b60405161032a919061224d565b60405180910390f35b61033b611054565b6040516103489190612187565b60405180910390f35b61036b60048036038101906103669190612664565b6110e6565b005b61038760048036038101906103829190612745565b6110fc565b005b6103a3600480360381019061039e91906121df565b61115e565b6040516103b09190612187565b60405180910390f35b6103d360048036038101906103ce91906127c8565b6111c6565b6040516103e091906120dc565b60405180910390f35b60007f80ac58cd000000000000000000000000000000000000000000000000000000007bffffffffffffffffffffffffffffffffffffffffffffffffffffffff1916827bffffffffffffffffffffffffffffffffffffffffffffffffffffffff191614806104b457507f5b5e139f000000000000000000000000000000000000000000000000000000007bffffffffffffffffffffffffffffffffffffffffffffffffffffffff1916827bffffffffffffffffffffffffffffffffffffffffffffffffffffffff1916145b806104c457506104c38261125a565b5b9050919050565b6060600080546104da90612837565b80601f016020809104026020016040519081016040528092919081815260200182805461050690612837565b80156105535780601f1061052857610100808354040283529160200191610553565b820191906000526020600020905b81548152906001019060200180831161053657829003601f168201915b5050505050905090565b6000610568826112c4565b6004600083815260200190815260200160002060009054906101000a900473ffffffffffffffffffffffffffffffffffffffff169050919050565b60006105ae82610b2e565b90508073ffffffffffffffffffffffffffffffffffffffff168373ffffffffffffffffffffffffffffffffffffffff160361061e576040517f08c379a0000000000000000000000000000000000000000000000000000000008152600401610615906128da565b60405180910390fd5b8073ffffffffffffffffffffffffffffffffffffffff1661063d61130f565b73ffffffffffffffffffffffffffffffffffffffff16148061066c575061066b8161066661130f565b6111c6565b5b6106ab576040517f08c379a00000000000000000000000000000000000000000000000000000000081526004016106a29061296c565b60405180910390fd5b6106b58383611317565b505050565b600080600760008481526020019081526020016000209050600073ffffffffffffffffffffffffffffffffffffffff168160000160009054906101000a900473ffffffffffffffffffffffffffffffffffffffff1673ffffffffffffffffffffffffffffffffffffffff1603610765576040517f08c379a000000000000000000000000000000000000000000000000000000000815260040161075c906129d8565b60405180910390fd5b8060040160009054906101000a900460ff16915050919050565b600660009054906101000a900473ffffffffffffffffffffffffffffffffffffffff1673ffffffffffffffffffffffffffffffffffffffff163373ffffffffffffffffffffffffffffffffffffffff161461080f576040517f08c379a000000000000000000000000000000000000000000000000000000000815260040161080690612a6a565b60405180910390fd5b6008600081548092919061082290612ab9565b919050555060006008549050600073ffffffffffffffffffffffffffffffffffffffff166007600083815260200190815260200160002060000160009054906101000a900473ffffffffffffffffffffffffffffffffffffffff1673ffffffffffffffffffffffffffffffffffffffff16146108d3576040517f08c379a00000000000000000000000000000000000000000000000000000000081526004016108ca90612b73565b60405180910390fd5b6040518061010001604052803373ffffffffffffffffffffffffffffffffffffffff1681526020018781526020018681526020014281526020016001151581526020018581526020018481526020018373ffffffffffffffffffffffffffffffffffffffff168152506007600083815260200190815260200160002060008201518160000160006101000a81548173ffffffffffffffffffffffffffffffffffffffff021916908373ffffffffffffffffffffffffffffffffffffffff16021790555060208201518160010190816109ab9190612d3f565b5060408201518160020190816109c19190612d3f565b506060820151816003015560808201518160040160006101000a81548160ff02191690831515021790555060a0820151816005019081610a019190612d3f565b5060c0820151816006019081610a179190612d3f565b5060e08201518160070160006101000a81548173ffffffffffffffffffffffffffffffffffffffff021916908373ffffffffffffffffffffffffffffffffffffffff1602179055509050503373ffffffffffffffffffffffffffffffffffffffff16817fe49b307e598015623a2892255804cc484dc5e94047758669301ad2f11a739ffb60405160405180910390a3505050505050565b610abf610ab961130f565b826113d0565b610afe576040517f08c379a0000000000000000000000000000000000000000000000000000000008152600401610af590612e83565b60405180910390fd5b610b09838383611465565b505050565b610b29838383604051806020016040528060008152506110fc565b505050565b600080610b3a8361175e565b9050600073ffffffffffffffffffffffffffffffffffffffff168173ffffffffffffffffffffffffffffffffffffffff1603610bab576040517f08c379a0000000000000000000000000000000000000000000000000000000008152600401610ba290612eef565b60405180910390fd5b80915050919050565b60076020528060005260406000206000915090508060000160009054906101000a900473ffffffffffffffffffffffffffffffffffffffff1690806001018054610bfd90612837565b80601f0160208091040260200160405190810160405280929190818152602001828054610c2990612837565b8015610c765780601f10610c4b57610100808354040283529160200191610c76565b820191906000526020600020905b815481529060010190602001808311610c5957829003601f168201915b505050505090806002018054610c8b90612837565b80601f0160208091040260200160405190810160405280929190818152602001828054610cb790612837565b8015610d045780601f10610cd957610100808354040283529160200191610d04565b820191906000526020600020905b815481529060010190602001808311610ce757829003601f168201915b5050505050908060030154908060040160009054906101000a900460ff1690806005018054610d3290612837565b80601f0160208091040260200160405190810160405280929190818152602001828054610d5e90612837565b8015610dab5780601f10610d8057610100808354040283529160200191610dab565b820191906000526020600020905b815481529060010190602001808311610d8e57829003601f168201915b505050505090806006018054610dc090612837565b80601f0160208091040260200160405190810160405280929190818152602001828054610dec90612837565b8015610e395780601f10610e0e57610100808354040283529160200191610e39565b820191906000526020600020905b815481529060010190602001808311610e1c57829003601f168201915b5050505050908060070160009054906101000a900473ffffffffffffffffffffffffffffffffffffffff16905088565b60085481565b60008073ffffffffffffffffffffffffffffffffffffffff168273ffffffffffffffffffffffffffffffffffffffff1603610edf576040517f08c379a0000000000000000000000000000000000000000000000000000000008152600401610ed690612f81565b60405180910390fd5b600360008373ffffffffffffffffffffffffffffffffffffffff1673ffffffffffffffffffffffffffffffffffffffff168152602001908152602001600020549050919050565b60006007600083815260200190815260200160002090508060070160009054906101000a900473ffffffffffffffffffffffffffffffffffffffff1673ffffffffffffffffffffffffffffffffffffffff163373ffffffffffffffffffffffffffffffffffffffff1614610fcf576040517f08c379a0000000000000000000000000000000000000000000000000000000008152600401610fc690613013565b60405180910390fd5b8060040160009054906101000a900460ff16611020576040517f08c379a00000000000000000000000000000000000000000000000000000000081526004016110179061307f565b60405180910390fd5b61102a338361179b565b5050565b600660009054906101000a900473ffffffffffffffffffffffffffffffffffffffff1681565b60606001805461106390612837565b80601f016020809104026020016040519081016040528092919081815260200182805461108f90612837565b80156110dc5780601f106110b1576101008083540402835291602001916110dc565b820191906000526020600020905b8154815290600101906020018083116110bf57829003601f168201915b5050505050905090565b6110f86110f161130f565b83836117b9565b5050565b61110d61110761130f565b836113d0565b61114c576040517f08c379a000000000000000000000000000000000000000000000000000000000815260040161114390612e83565b60405180910390fd5b61115884848484611925565b50505050565b6060611169826112c4565b6000611173611981565b9050600081511161119357604051806020016040528060008152506111be565b8061119d84611998565b6040516020016111ae9291906130db565b6040516020818303038152906040525b915050919050565b6000600560008473ffffffffffffffffffffffffffffffffffffffff1673ffffffffffffffffffffffffffffffffffffffff16815260200190815260200160002060008373ffffffffffffffffffffffffffffffffffffffff1673ffffffffffffffffffffffffffffffffffffffff16815260200190815260200160002060009054906101000a900460ff16905092915050565b60007f01ffc9a7000000000000000000000000000000000000000000000000000000007bffffffffffffffffffffffffffffffffffffffffffffffffffffffff1916827bffffffffffffffffffffffffffffffffffffffffffffffffffffffff1916149050919050565b6112cd81611a66565b61130c576040517f08c379a000000000000000000000000000000000000000000000000000000000815260040161130390612eef565b60405180910390fd5b50565b600033905090565b816004600083815260200190815260200160002060006101000a81548173ffffffffffffffffffffffffffffffffffffffff021916908373ffffffffffffffffffffffffffffffffffffffff160217905550808273ffffffffffffffffffffffffffffffffffffffff1661138a83610b2e565b73ffffffffffffffffffffffffffffffffffffffff167f8c5be1e5ebec7d5bd14f71427d1e84f3dd0314c0f7b2291e5b200ac8c7c3b92560405160405180910390a45050565b6000806113dc83610b2e565b90508073ffffffffffffffffffffffffffffffffffffffff168473ffffffffffffffffffffffffffffffffffffffff16148061141e575061141d81856111c6565b5b8061145c57508373ffffffffffffffffffffffffffffffffffffffff166114448461055d565b73ffffffffffffffffffffffffffffffffffffffff16145b91505092915050565b8273ffffffffffffffffffffffffffffffffffffffff1661148582610b2e565b73ffffffffffffffffffffffffffffffffffffffff16146114db576040517f08c379a00000000000000000000000000000000000000000000000000000000081526004016114d290613171565b60405180910390fd5b600073ffffffffffffffffffffffffffffffffffffffff168273ffffffffffffffffffffffffffffffffffffffff160361154a576040517f08c379a000000000000000000000000000000000000000000000000000000000815260040161154190613203565b60405180910390fd5b6115578383836001611aa7565b8273ffffffffffffffffffffffffffffffffffffffff1661157782610b2e565b73ffffffffffffffffffffffffffffffffffffffff16146115cd576040517f08c379a00000000000000000000000000000000000000000000000000000000081526004016115c490613171565b60405180910390fd5b6004600082815260200190815260200160002060006101000a81549073ffffffffffffffffffffffffffffffffffffffff02191690556001600360008573ffffffffffffffffffffffffffffffffffffffff1673ffffffffffffffffffffffffffffffffffffffff168152602001908152602001600020600082825403925050819055506001600360008473ffffffffffffffffffffffffffffffffffffffff1673ffffffffffffffffffffffffffffffffffffffff16815260200190815260200160002060008282540192505081905550816002600083815260200190815260200160002060006101000a81548173ffffffffffffffffffffffffffffffffffffffff021916908373ffffffffffffffffffffffffffffffffffffffff160217905550808273ffffffffffffffffffffffffffffffffffffffff168473ffffffffffffffffffffffffffffffffffffffff167fddf252ad1be2c89b69c2b068fc378daa952ba7f163c4a11628f55a4df523b3ef60405160405180910390a46117598383836001611aad565b505050565b60006002600083815260200190815260200160002060009054906101000a900473ffffffffffffffffffffffffffffffffffffffff169050919050565b6117b5828260405180602001604052806000815250611ab3565b5050565b8173ffffffffffffffffffffffffffffffffffffffff168373ffffffffffffffffffffffffffffffffffffffff1603611827576040517f08c379a000000000000000000000000000000000000000000000000000000000815260040161181e9061326f565b60405180910390fd5b80600560008573ffffffffffffffffffffffffffffffffffffffff1673ffffffffffffffffffffffffffffffffffffffff16815260200190815260200160002060008473ffffffffffffffffffffffffffffffffffffffff1673ffffffffffffffffffffffffffffffffffffffff16815260200190815260200160002060006101000a81548160ff0219169083151502179055508173ffffffffffffffffffffffffffffffffffffffff168373ffffffffffffffffffffffffffffffffffffffff167f17307eab39ab6107e8899845ad3d59bd9653f200f220920489ca2b5937696c318360405161191891906120dc565b60405180910390a3505050565b611930848484611465565b61193c84848484611b0e565b61197b576040517f08c379a000000000000000000000000000000000000000000000000000000000815260040161197290613301565b60405180910390fd5b50505050565b606060405180602001604052806000815250905090565b6060600060016119a784611c95565b01905060008167ffffffffffffffff8111156119c6576119c56122de565b5b6040519080825280601f01601f1916602001820160405280156119f85781602001600182028036833780820191505090505b509050600082602001820190505b600115611a5b578080600190039150507f3031323334353637383961626364656600000000000000000000000000000000600a86061a8153600a8581611a4f57611a4e613321565b5b04945060008503611a06575b819350505050919050565b60008073ffffffffffffffffffffffffffffffffffffffff16611a888361175e565b73ffffffffffffffffffffffffffffffffffffffff1614159050919050565b50505050565b50505050565b611abd8383611de8565b611aca6000848484611b0e565b611b09576040517f08c379a0000000000000000000000000000000000000000000000000000000008152600401611b0090613301565b60405180910390fd5b505050565b6000611b2f8473ffffffffffffffffffffffffffffffffffffffff16612005565b15611c88578373ffffffffffffffffffffffffffffffffffffffff1663150b7a02611b5861130f565b8786866040518563ffffffff1660e01b8152600401611b7a94939291906133a5565b6020604051808303816000875af1925050508015611bb657506040513d601f19601f82011682018060405250810190611bb39190613406565b60015b611c38573d8060008114611be6576040519150601f19603f3d011682016040523d82523d6000602084013e611beb565b606091505b506000815103611c30576040517f08c379a0000000000000000000000000000000000000000000000000000000008152600401611c2790613301565b60405180910390fd5b805181602001fd5b63150b7a0260e01b7bffffffffffffffffffffffffffffffffffffffffffffffffffffffff1916817bffffffffffffffffffffffffffffffffffffffffffffffffffffffff191614915050611c8d565b600190505b949350505050565b600080600090507a184f03e93ff9f4daa797ed6e38ed64bf6a1f0100000000000000008310611cf3577a184f03e93ff9f4daa797ed6e38ed64bf6a1f0100000000000000008381611ce957611ce8613321565b5b0492506040810190505b6d04ee2d6d415b85acef81000000008310611d30576d04ee2d6d415b85acef81000000008381611d2657611d25613321565b5b0492506020810190505b662386f26fc100008310611d5f57662386f26fc100008381611d5557611d54613321565b5b0492506010810190505b6305f5e1008310611d88576305f5e1008381611d7e57611d7d613321565b5b0492506008810190505b6127108310611dad576127108381611da357611da2613321565b5b0492506004810190505b60648310611dd05760648381611dc657611dc5613321565b5b0492506002810190505b600a8310611ddf576001810190505b80915050919050565b600073ffffffffffffffffffffffffffffffffffffffff168273ffffffffffffffffffffffffffffffffffffffff1603611e57576040517f08c379a0000000000000000000000000000000000000000000000000000000008152600401611e4e9061347f565b60405180910390fd5b611e6081611a66565b15611ea0576040517f08c379a0000000000000000000000000000000000000000000000000000000008152600401611e97906134eb565b60405180910390fd5b611eae600083836001611aa7565b611eb781611a66565b15611ef7576040517f08c379a0000000000000000000000000000000000000000000000000000000008152600401611eee906134eb565b60405180910390fd5b6001600360008473ffffffffffffffffffffffffffffffffffffffff1673ffffffffffffffffffffffffffffffffffffffff16815260200190815260200160002060008282540192505081905550816002600083815260200190815260200160002060006101000a81548173ffffffffffffffffffffffffffffffffffffffff021916908373ffffffffffffffffffffffffffffffffffffffff160217905550808273ffffffffffffffffffffffffffffffffffffffff16600073ffffffffffffffffffffffffffffffffffffffff167fddf252ad1be2c89b69c2b068fc378daa952ba7f163c4a11628f55a4df523b3ef60405160405180910390a4612001600083836001611aad565b5050565b6000808273ffffffffffffffffffffffffffffffffffffffff163b119050919050565b6000604051905090565b600080fd5b600080fd5b60007fffffffff0000000000000000000000000000000000000000000000000000000082169050919050565b6120718161203c565b811461207c57600080fd5b50565b60008135905061208e81612068565b92915050565b6000602082840312156120aa576120a9612032565b5b60006120b88482850161207f565b91505092915050565b60008115159050919050565b6120d6816120c1565b82525050565b60006020820190506120f160008301846120cd565b92915050565b600081519050919050565b600082825260208201905092915050565b60005b83811015612131578082015181840152602081019050612116565b60008484015250505050565b6000601f19601f8301169050919050565b6000612159826120f7565b6121638185612102565b9350612173818560208601612113565b61217c8161213d565b840191505092915050565b600060208201905081810360008301526121a1818461214e565b905092915050565b6000819050919050565b6121bc816121a9565b81146121c757600080fd5b50565b6000813590506121d9816121b3565b92915050565b6000602082840312156121f5576121f4612032565b5b6000612203848285016121ca565b91505092915050565b600073ffffffffffffffffffffffffffffffffffffffff82169050919050565b60006122378261220c565b9050919050565b6122478161222c565b82525050565b6000602082019050612262600083018461223e565b92915050565b6122718161222c565b811461227c57600080fd5b50565b60008135905061228e81612268565b92915050565b600080604083850312156122ab576122aa612032565b5b60006122b98582860161227f565b92505060206122ca858286016121ca565b9150509250929050565b600080fd5b600080fd5b7f4e487b7100000000000000000000000000000000000000000000000000000000600052604160045260246000fd5b6123168261213d565b810181811067ffffffffffffffff82111715612335576123346122de565b5b80604052505050565b6000612348612028565b9050612354828261230d565b919050565b600067ffffffffffffffff821115612374576123736122de565b5b61237d8261213d565b9050602081019050919050565b82818337600083830152505050565b60006123ac6123a784612359565b61233e565b9050828152602081018484840111156123c8576123c76122d9565b5b6123d384828561238a565b509392505050565b600082601f8301126123f0576123ef6122d4565b5b8135612400848260208601612399565b91505092915050565b600080600080600060a0868803121561242557612424612032565b5b600086013567ffffffffffffffff81111561244357612442612037565b5b61244f888289016123db565b955050602086013567ffffffffffffffff8111156124705761246f612037565b5b61247c888289016123db565b945050604086013567ffffffffffffffff81111561249d5761249c612037565b5b6124a9888289016123db565b935050606086013567ffffffffffffffff8111156124ca576124c9612037565b5b6124d6888289016123db565b92505060806124e78882890161227f565b9150509295509295909350565b60008060006060848603121561250d5761250c612032565b5b600061251b8682870161227f565b935050602061252c8682870161227f565b925050604061253d868287016121ca565b9150509250925092565b612550816121a9565b82525050565b60006101008201905061256c600083018b61223e565b818103602083015261257e818a61214e565b90508181036040830152612592818961214e565b90506125a16060830188612547565b6125ae60808301876120cd565b81810360a08301526125c0818661214e565b905081810360c08301526125d4818561214e565b90506125e360e083018461223e565b9998505050505050505050565b60006020820190506126056000830184612547565b92915050565b60006020828403121561262157612620612032565b5b600061262f8482850161227f565b91505092915050565b612641816120c1565b811461264c57600080fd5b50565b60008135905061265e81612638565b92915050565b6000806040838503121561267b5761267a612032565b5b60006126898582860161227f565b925050602061269a8582860161264f565b9150509250929050565b600067ffffffffffffffff8211156126bf576126be6122de565b5b6126c88261213d565b9050602081019050919050565b60006126e86126e3846126a4565b61233e565b905082815260208101848484011115612704576127036122d9565b5b61270f84828561238a565b509392505050565b600082601f83011261272c5761272b6122d4565b5b813561273c8482602086016126d5565b91505092915050565b6000806000806080858703121561275f5761275e612032565b5b600061276d8782880161227f565b945050602061277e8782880161227f565b935050604061278f878288016121ca565b925050606085013567ffffffffffffffff8111156127b0576127af612037565b5b6127bc87828801612717565b91505092959194509250565b600080604083850312156127df576127de612032565b5b60006127ed8582860161227f565b92505060206127fe8582860161227f565b9150509250929050565b7f4e487b7100000000000000000000000000000000000000000000000000000000600052602260045260246000fd5b6000600282049050600182168061284f57607f821691505b60208210810361286257612861612808565b5b50919050565b7f4552433732313a20617070726f76616c20746f2063757272656e74206f776e6560008201527f7200000000000000000000000000000000000000000000000000000000000000602082015250565b60006128c4602183612102565b91506128cf82612868565b604082019050919050565b600060208201905081810360008301526128f3816128b7565b9050919050565b7f4552433732313a20617070726f76652063616c6c6572206973206e6f7420746f60008201527f6b656e206f776e6572206f7220617070726f76656420666f7220616c6c000000602082015250565b6000612956603d83612102565b9150612961826128fa565b604082019050919050565b6000602082019050818103600083015261298581612949565b9050919050565b7f4365727469666963617465206e6f7420666f756e640000000000000000000000600082015250565b60006129c2601583612102565b91506129cd8261298c565b602082019050919050565b600060208201905081810360008301526129f1816129b5565b9050919050565b7f4f6e6c792074686520636f6e7472616374206f776e65722063616e2063616c6c60008201527f20746869732066756e6374696f6e000000000000000000000000000000000000602082015250565b6000612a54602e83612102565b9150612a5f826129f8565b604082019050919050565b60006020820190508181036000830152612a8381612a47565b9050919050565b7f4e487b7100000000000000000000000000000000000000000000000000000000600052601160045260246000fd5b6000612ac4826121a9565b91507fffffffffffffffffffffffffffffffffffffffffffffffffffffffffffffffff8203612af657612af5612a8a565b5b600182019050919050565b7f43657274696669636174652077697468207468697320494420616c726561647960008201527f2065786973747300000000000000000000000000000000000000000000000000602082015250565b6000612b5d602783612102565b9150612b6882612b01565b604082019050919050565b60006020820190508181036000830152612b8c81612b50565b9050919050565b60008190508160005260206000209050919050565b60006020601f8301049050919050565b600082821b905092915050565b600060088302612bf57fffffffffffffffffffffffffffffffffffffffffffffffffffffffffffffffff82612bb8565b612bff8683612bb8565b95508019841693508086168417925050509392505050565b6000819050919050565b6000612c3c612c37612c32846121a9565b612c17565b6121a9565b9050919050565b6000819050919050565b612c5683612c21565b612c6a612c6282612c43565b848454612bc5565b825550505050565b600090565b612c7f612c72565b612c8a818484612c4d565b505050565b5b81811015612cae57612ca3600082612c77565b600181019050612c90565b5050565b601f821115612cf357612cc481612b93565b612ccd84612ba8565b81016020851015612cdc578190505b612cf0612ce885612ba8565b830182612c8f565b50505b505050565b600082821c905092915050565b6000612d1660001984600802612cf8565b1980831691505092915050565b6000612d2f8383612d05565b9150826002028217905092915050565b612d48826120f7565b67ffffffffffffffff811115612d6157612d606122de565b5b612d6b8254612837565b612d76828285612cb2565b600060209050601f831160018114612da95760008415612d97578287015190505b612da18582612d23565b865550612e09565b601f198416612db786612b93565b60005b82811015612ddf57848901518255600182019150602085019450602081019050612dba565b86831015612dfc5784890151612df8601f891682612d05565b8355505b6001600288020188555050505b505050505050565b7f4552433732313a2063616c6c6572206973206e6f7420746f6b656e206f776e6560008201527f72206f7220617070726f76656400000000000000000000000000000000000000602082015250565b6000612e6d602d83612102565b9150612e7882612e11565b604082019050919050565b60006020820190508181036000830152612e9c81612e60565b9050919050565b7f4552433732313a20696e76616c696420746f6b656e2049440000000000000000600082015250565b6000612ed9601883612102565b9150612ee482612ea3565b602082019050919050565b60006020820190508181036000830152612f0881612ecc565b9050919050565b7f4552433732313a2061646472657373207a65726f206973206e6f74206120766160008201527f6c6964206f776e65720000000000000000000000000000000000000000000000602082015250565b6000612f6b602983612102565b9150612f7682612f0f565b604082019050919050565b60006020820190508181036000830152612f9a81612f5e565b9050919050565b7f4f6e6c792074686520636572746966696361746520686f6c6465722063616e2060008201527f6d696e7420746865204e46540000000000000000000000000000000000000000602082015250565b6000612ffd602c83612102565b915061300882612fa1565b604082019050919050565b6000602082019050818103600083015261302c81612ff0565b9050919050565b7f4365727469666963617465206973206e6f742076616c69640000000000000000600082015250565b6000613069601883612102565b915061307482613033565b602082019050919050565b600060208201905081810360008301526130988161305c565b9050919050565b600081905092915050565b60006130b5826120f7565b6130bf818561309f565b93506130cf818560208601612113565b80840191505092915050565b60006130e782856130aa565b91506130f382846130aa565b91508190509392505050565b7f4552433732313a207472616e736665722066726f6d20696e636f72726563742060008201527f6f776e6572000000000000000000000000000000000000000000000000000000602082015250565b600061315b602583612102565b9150613166826130ff565b604082019050919050565b6000602082019050818103600083015261318a8161314e565b9050919050565b7f4552433732313a207472616e7366657220746f20746865207a65726f2061646460008201527f7265737300000000000000000000000000000000000000000000000000000000602082015250565b60006131ed602483612102565b91506131f882613191565b604082019050919050565b6000602082019050818103600083015261321c816131e0565b9050919050565b7f4552433732313a20617070726f766520746f2063616c6c657200000000000000600082015250565b6000613259601983612102565b915061326482613223565b602082019050919050565b600060208201905081810360008301526132888161324c565b9050919050565b7f4552433732313a207472616e7366657220746f206e6f6e20455243373231526560008201527f63656976657220696d706c656d656e7465720000000000000000000000000000602082015250565b60006132eb603283612102565b91506132f68261328f565b604082019050919050565b6000602082019050818103600083015261331a816132de565b9050919050565b7f4e487b7100000000000000000000000000000000000000000000000000000000600052601260045260246000fd5b600081519050919050565b600082825260208201905092915050565b600061337782613350565b613381818561335b565b9350613391818560208601612113565b61339a8161213d565b840191505092915050565b60006080820190506133ba600083018761223e565b6133c7602083018661223e565b6133d46040830185612547565b81810360608301526133e6818461336c565b905095945050505050565b60008151905061340081612068565b92915050565b60006020828403121561341c5761341b612032565b5b600061342a848285016133f1565b91505092915050565b7f4552433732313a206d696e7420746f20746865207a65726f2061646472657373600082015250565b6000613469602083612102565b915061347482613433565b602082019050919050565b600060208201905081810360008301526134988161345c565b9050919050565b7f4552433732313a20746f6b656e20616c7265616479206d696e74656400000000600082015250565b60006134d5601c83612102565b91506134e08261349f565b602082019050919050565b60006020820190508181036000830152613504816134c8565b905091905056fea2646970667358221220e8ee44281093c08a207a431775073b469732bbb4f400e44a36d3638b9ebe855a64736f6c63430008130033",
  "linkReferences": {},
  "deployedLinkReferences": {}
}